{
  "contractName": "TodoList",
  "abi": [
    {
      "anonymous": false,
      "inputs": [
        {
          "indexed": false,
          "internalType": "uint256",
          "name": "id",
          "type": "uint256"
        },
        {
          "indexed": false,
          "internalType": "string",
          "name": "content",
          "type": "string"
        },
        {
          "indexed": false,
          "internalType": "bool",
          "name": "completed",
          "type": "bool"
        }
      ],
      "name": "TaskCreated",
      "type": "event"
    },
    {
      "anonymous": false,
      "inputs": [
        {
          "indexed": false,
          "internalType": "uint256",
          "name": "id",
          "type": "uint256"
        },
        {
          "indexed": false,
          "internalType": "string",
          "name": "content",
          "type": "string"
        },
        {
          "indexed": false,
          "internalType": "bool",
          "name": "completed",
          "type": "bool"
        }
      ],
      "name": "TaskUpdated",
      "type": "event"
    },
    {
      "constant": true,
      "inputs": [],
      "name": "taskCount",
      "outputs": [
        {
          "internalType": "uint256",
          "name": "",
          "type": "uint256"
        }
      ],
      "payable": false,
      "stateMutability": "view",
      "type": "function"
    },
    {
      "constant": true,
      "inputs": [
        {
          "internalType": "uint256",
          "name": "",
          "type": "uint256"
        }
      ],
      "name": "tasks",
      "outputs": [
        {
          "internalType": "uint256",
          "name": "id",
          "type": "uint256"
        },
        {
          "internalType": "string",
          "name": "content",
          "type": "string"
        },
        {
          "internalType": "bool",
          "name": "completed",
          "type": "bool"
        },
        {
          "internalType": "uint256",
          "name": "user_id",
          "type": "uint256"
        }
      ],
      "payable": false,
      "stateMutability": "view",
      "type": "function"
    },
    {
      "constant": false,
      "inputs": [
        {
          "internalType": "string",
          "name": "_content",
          "type": "string"
        },
        {
          "internalType": "uint256",
          "name": "_user_id",
          "type": "uint256"
        }
      ],
      "name": "newTask",
      "outputs": [],
      "payable": false,
      "stateMutability": "nonpayable",
      "type": "function"
    },
    {
      "constant": false,
      "inputs": [
        {
          "internalType": "uint256",
          "name": "_id",
          "type": "uint256"
        },
        {
          "internalType": "string",
          "name": "_content",
          "type": "string"
        },
        {
          "internalType": "uint256",
          "name": "_user_id",
          "type": "uint256"
        },
        {
          "internalType": "bool",
          "name": "_completed",
          "type": "bool"
        }
      ],
      "name": "editTask",
      "outputs": [],
      "payable": false,
      "stateMutability": "nonpayable",
      "type": "function"
    },
    {
      "constant": true,
      "inputs": [],
      "name": "getAll",
      "outputs": [
        {
          "components": [
            {
              "internalType": "uint256",
              "name": "id",
              "type": "uint256"
            },
            {
              "internalType": "string",
              "name": "content",
              "type": "string"
            },
            {
              "internalType": "bool",
              "name": "completed",
              "type": "bool"
            },
            {
              "internalType": "uint256",
              "name": "user_id",
              "type": "uint256"
            }
          ],
          "internalType": "struct TodoList.Task[]",
          "name": "",
          "type": "tuple[]"
        }
      ],
      "payable": false,
      "stateMutability": "view",
      "type": "function"
    }
  ],
  "bytecode": "0x60806040526000805534801561001457600080fd5b50610b7a806100246000396000f3fe608060405234801561001057600080fd5b50600436106100575760003560e01c806353ed51431461005c5780636f759da81461007a5780638d97767214610096578063b6cb58a5146100c9578063dbb3b123146100e7575b600080fd5b610064610103565b604051610071919061090f565b60405180910390f35b610094600480360361008f91908101906106c1565b610270565b005b6100b060048036036100ab9190810190610698565b61033b565b6040516100c0949392919061098a565b60405180910390f35b6100d1610410565b6040516100de9190610931565b60405180910390f35b61010160048036036100fc9190810190610644565b610416565b005b60608060005460405190808252806020026020018201604052801561014257816020015b61012f6104f7565b8152602001906001900390816101275790505b50905060008090505b600054811015610268576001600082815260200190815260200160002060405180608001604052908160008201548152602001600182018054600181600116156101000203166002900480601f0160208091040260200160405190810160405280929190818152602001828054600181600116156101000203166002900480156102165780601f106101eb57610100808354040283529160200191610216565b820191906000526020600020905b8154815290600101906020018083116101f957829003601f168201915b505050505081526020016002820160009054906101000a900460ff1615151515815260200160038201548152505082828151811061025057fe5b6020026020010181905250808060010191505061014b565b508091505090565b6040518060800160405280858152602001848152602001821515815260200183815250600160008681526020019081526020016000206000820151816000015560208201518160010190805190602001906102cc929190610521565b5060408201518160020160006101000a81548160ff021916908315150217905550606082015181600301559050507f731243b94fd6f4071f6ac97a26cb4cff681428631c877c64cdea5371290b01c184848360405161032d9392919061094c565b60405180910390a150505050565b6001602052806000526040600020600091509050806000015490806001018054600181600116156101000203166002900480601f0160208091040260200160405190810160405280929190818152602001828054600181600116156101000203166002900480156103ed5780601f106103c2576101008083540402835291602001916103ed565b820191906000526020600020905b8154815290600101906020018083116103d057829003601f168201915b5050505050908060020160009054906101000a900460ff16908060030154905084565b60005481565b600080815480929190600101919050555060405180608001604052806000548152602001838152602001600015158152602001828152506001600080548152602001908152602001600020600082015181600001556020820151816001019080519060200190610487929190610521565b5060408201518160020160006101000a81548160ff021916908315150217905550606082015181600301559050507f05d0fb833127fc08168556d0e7ca9554fc3f6bc843b3b7d2bf1c35aea6bab6606000548360006040516104eb9392919061094c565b60405180910390a15050565b60405180608001604052806000815260200160608152602001600015158152602001600081525090565b828054600181600116156101000203166002900490600052602060002090601f016020900481019282601f1061056257805160ff1916838001178555610590565b82800160010185558215610590579182015b8281111561058f578251825591602001919060010190610574565b5b50905061059d91906105a1565b5090565b6105c391905b808211156105bf5760008160009055506001016105a7565b5090565b90565b6000813590506105d581610b09565b92915050565b600082601f8301126105ec57600080fd5b81356105ff6105fa82610a03565b6109d6565b9150808252602083016020830185838301111561061b57600080fd5b610626838284610ab6565b50505092915050565b60008135905061063e81610b20565b92915050565b6000806040838503121561065757600080fd5b600083013567ffffffffffffffff81111561067157600080fd5b61067d858286016105db565b925050602061068e8582860161062f565b9150509250929050565b6000602082840312156106aa57600080fd5b60006106b88482850161062f565b91505092915050565b600080600080608085870312156106d757600080fd5b60006106e58782880161062f565b945050602085013567ffffffffffffffff81111561070257600080fd5b61070e878288016105db565b935050604061071f8782880161062f565b9250506060610730878288016105c6565b91505092959194509250565b6000610748838361088e565b905092915050565b600061075b82610a3f565b6107658185610a6d565b93508360208202850161077785610a2f565b8060005b858110156107b35784840389528151610794858261073c565b945061079f83610a60565b925060208a0199505060018101905061077b565b50829750879550505050505092915050565b6107ce81610aa0565b82525050565b6107dd81610aa0565b82525050565b60006107ee82610a55565b6107f88185610a8f565b9350610808818560208601610ac5565b61081181610af8565b840191505092915050565b600061082782610a4a565b6108318185610a7e565b9350610841818560208601610ac5565b61084a81610af8565b840191505092915050565b600061086082610a4a565b61086a8185610a8f565b935061087a818560208601610ac5565b61088381610af8565b840191505092915050565b60006080830160008301516108a660008601826108f1565b50602083015184820360208601526108be828261081c565b91505060408301516108d360408601826107c5565b5060608301516108e660608601826108f1565b508091505092915050565b6108fa81610aac565b82525050565b61090981610aac565b82525050565b600060208201905081810360008301526109298184610750565b905092915050565b60006020820190506109466000830184610900565b92915050565b60006060820190506109616000830186610900565b818103602083015261097381856107e3565b905061098260408301846107d4565b949350505050565b600060808201905061099f6000830187610900565b81810360208301526109b18186610855565b90506109c060408301856107d4565b6109cd6060830184610900565b95945050505050565b6000604051905081810181811067ffffffffffffffff821117156109f957600080fd5b8060405250919050565b600067ffffffffffffffff821115610a1a57600080fd5b601f19601f8301169050602081019050919050565b6000819050602082019050919050565b600081519050919050565b600081519050919050565b600081519050919050565b6000602082019050919050565b600082825260208201905092915050565b600082825260208201905092915050565b600082825260208201905092915050565b60008115159050919050565b6000819050919050565b82818337600083830152505050565b60005b83811015610ae3578082015181840152602081019050610ac8565b83811115610af2576000848401525b50505050565b6000601f19601f8301169050919050565b610b1281610aa0565b8114610b1d57600080fd5b50565b610b2981610aac565b8114610b3457600080fd5b5056fea365627a7a723158209cbd5700aabe9fb5f55cfd11e29b53196c0445c632ce3298dab64ee496a16ccd6c6578706572696d656e74616cf564736f6c63430005100040",
  "source": "pragma solidity ^0.5.0;\npragma experimental ABIEncoderV2;\n\ncontract TodoList {\n  uint public taskCount = 0;\n\n  struct Task {\n    uint id;\n    string content;\n    bool completed;\n    uint user_id;\n  }\n\n  mapping(uint => Task) public tasks;\n\n  event TaskCreated(\n    uint id,\n    string content,\n    bool completed\n  );\n\n  event TaskUpdated(\n    uint id,\n    string content,\n    bool completed\n  );\n\n  function newTask(string memory _content, uint _user_id) public {\n    taskCount ++;\n    tasks[taskCount] = Task(taskCount, _content, false, _user_id);\n    emit TaskCreated(taskCount, _content, false);\n  }\n\n  function editTask(uint _id, string memory _content, uint _user_id, bool _completed) public {\n    tasks[_id] = Task(_id, _content, _completed, _user_id);\n    emit TaskUpdated(_id, _content, _completed);\n  }\n\n  function getAll() public view returns (Task[] memory){\n    Task[] memory todos = new Task[](taskCount);\n    for (uint i = 0; i < taskCount; i++) {\n        todos[i] = tasks[i];\n    }\n    return todos;\n  }\n\n}\n\n",
  "sourcePath": "/Users/owner/Desktop/blockchain-application-development/blockchain-labs/Lab-8/express-todo-list-auth-completed/contracts/TodoList.sol",
  "compiler": {
    "name": "solc",
    "version": "0.5.16+commit.9c3226ce.Emscripten.clang"
  },
  "schemaVersion": "3.4.1",
  "updatedAt": "2021-07-05T21:05:06.611Z",
  "devdoc": {
    "methods": {}
  },
  "userdoc": {
    "methods": {}
  }
}